:020000020000FC
:0200000012C02C
:10002400D7C00EEF0AB930E051E43AD002E00093B1
:10003400C00008E90093C1000CE00093C400789468
:1000440000E23CD000EC3AD01DD000E037D000EE06
:1000540035D018D000E032D000E630D013D000E024
:100064002DD000E12BD00ED000EF04B90FE005B97C
:1000740017D0189B28D0199B29D01A9B2AD01B9BD8
:100084002BD0F7CF12E02AEF0000000000000000A0
:100094000000000000002A95B9F71A95A1F7089509
:1000A40018E22AEF00000000000000000000000039
:1000B40000002A95B9F71A95A1F708950BB95A9A31
:1000C40000005A98089540E01ED0089544E01BD0E3
:1000D400089548E018D008954CE015D008953031C3
:1000E40019F0313239F0089500ECE8DF00E0E6DF82
:1000F400C9DF089500E0E2DF00E1E0DFC3DF30E0C4
:10010400062F5BD008950FE004B900EF05B9000095
:1001140001D008951C9B0BD01D9B14D01E9B1FD097
:100124001F9B2AD000EF04B90FE005B90895052FED
:10013400040F602F42D06093C6003395D0DFB0DF48
:10014400AFDF089501E0400F052F040F602F35D075
:100154006093C6003395C3DFA3DFA2DF089502E0F6
:10016400400F052F040F602F28D06093C6003395ED
:10017400B6DF96DF95DF089503E0400F4F3059F066
:10018400052F040F602F19D06093C6003395A7DFA5
:1001940087DF86DF0895513441F0503541F0503304
:1001A40041F0513641F051E4F3CF50E5F1CF50E343
:1001B400EFCF51E6EDCF50E7EBCF0F93007F086010
:1001C4007DDF0F910295007F086078DF5BDF089583
:1001D4000091C6000093C600602FEFDF53DF339514
:0401E4007EDF18950D
:00000001FF
