:020000020000FC
:1000000001C054C00FEF04B904E00BB902E0009343
:10001000690001E00DBB7894EAE5F0E0A0E0B1E012
:1000200001E0802E10E00AE0C8950D9231960A9505
:10003000D9F710E0A12F2C9125B914D021E0821618
:1000400029F020E0121739F01A95F4CF29E01217A1
:1000500081F31395EFCF19E0EDCF7E306D79335BEF
:100060005F707F7B02E0502E08EC402E0AEF302EAE
:1000700000000000000000000000000000003A94B2
:10008000B9F74A9499F75A9479F7089506E0602EE3
:100090000AEF702E000000000000000000000000C9
:1000A00000007A94B9F76A9499F70895EFDF01E0B8
:1000B0000CBB4A9918958094082D0170802E1895D4
:00000001FF
