:020000020000FC
:1000000001C031C001E004B904E00BB902E0009383
:10001000690001E00DBB789412D02898FDCF06E06E
:10002000302E0AEF402E000000000000000000000B
:10003000000000004A94B9F73A9499F7089504E152
:10004000002E08EC102E0AEF202E00000000000009
:1000500000000000000000002A94B9F71A9499F7F4
:100060000A9479F70895DBDF01E00CBB4A991895F3
:1000700004E1002E08EC102E0AEF202E01E005B955
:020080001895D1
:00000001FF
