:020000020000FC
:0400000010C068C004
:1000200065C00FEF04B904E00BB902E0009369006A
:1000300001E00DBB789403E007B944D0E2E7F0E0BB
:10004000A0E0B1E001E0802E38E020E00AE0C895B1
:100050000D9231960A95D9F712E018B9A22F4C915A
:1000600045B920D011E018B9A32F4C9145B91AD049
:10007000F3CF7E306D79335B5F707F7B02E0502E73
:1000800008EC402E0AEF302E0000000000000000B7
:100090000000000000003A94B9F74A9499F75A9486
:1000A00079F7089502E0602E0AEF702E000000003C
:1000B000000000000000000000007A94B9F76A9484
:1000C00099F7089505E005BD01E005BB01E0009347
:1000D0006E007894E7DFE6DFE5DF01E00CBB4A99CC
:1000E00018958094082D0170802E1895939402E045
:1000F000901609F0189501E0801679F000E0902E36
:1001000000E0201711F02A95F5CF29E000E0301724
:1001100011F03A95EFCF39E0EDCF00E0902E09E0F5
:10012000201711F02395E6CF20E009E0301711F0F9
:080130003395E0CF30E0DECF93
:00000001FF
