:020000020000FC
:040000000BC05BC016
:1000160066C00FEF04B904E00BB902E00093690073
:1000260001E00DBB789407E007B9E0E9F0E0A0E055
:10003600B1E020E030E040E050E060E070E00BE04E
:10004600009381000DE30093890009E00093880086
:1000560002E000936F0078940AE0C8950D923196FD
:100066000A95D9F716E018B9A22F8C9085B812D048
:1000760015E018B9A32F8C9085B80CD013E018B9E9
:10008600A42F8C9085B806D0EDCF7E306D79335B8A
:100096005F707F7B02E0602E0AEF702E000000008A
:1000A600000000000000000000007A94B9F76A948E
:1000B60099F708954A99189509E0501711F0539544
:1000C600FACF50E009E0601711F06395F4CF60E0D5
:1000D60009E0701711F07395EECF70E0ECCF252F85
:0C00E600362F472F50E060E070E01895C6
:00000001FF
