:020000020000FC
:0200000012C02C
:1000240057C00EEF30E00AB92ED002E00093C000B2
:1000340008E90093C1000CE00093C400789400E246
:1000440030D000EC2ED011D000E02BD000EE29D01F
:100054000CD000E026D000E624D007D000E021D068
:1000640000E11FD002D00000FECF12E02AEF000012
:100074000000000000000000000000002A95B9F70D
:100084001A95A1F7089518E22AEF00000000000075
:1000940000000000000000002A95B9F71A95A1F7A6
:1000A40008950BB95A9A00005A980895303119F0FE
:1000B400313239F0089500ECF4DF00E0F2DFD5DFEF
:1000C400089500E0EEDF00E1ECDFCFDF30E00895DB
:1000D4000091C6000093C6000F93007F0860E1DF23
:1000E4000F910295007F0860DCDFBFDF3395DEDF10
:0200F40018955D
:00000001FF
